{
  "_format": "hh-sol-artifact-1",
  "contractName": "ArtAI",
  "sourceName": "contracts/ArtAI.sol",
  "abi": [
    {
      "inputs": [
        {
          "internalType": "contract IKIP7",
          "name": "_Chick",
          "type": "address"
        },
        {
          "internalType": "contract IKIP17",
          "name": "_Chickiz",
          "type": "address"
        }
      ],
      "stateMutability": "nonpayable",
      "type": "constructor"
    },
    {
      "anonymous": false,
      "inputs": [
        {
          "indexed": true,
          "internalType": "address",
          "name": "previousOwner",
          "type": "address"
        },
        {
          "indexed": true,
          "internalType": "address",
          "name": "newOwner",
          "type": "address"
        }
      ],
      "name": "OwnershipTransferred",
      "type": "event"
    },
    {
      "inputs": [],
      "name": "Chick",
      "outputs": [
        {
          "internalType": "contract IKIP7",
          "name": "",
          "type": "address"
        }
      ],
      "stateMutability": "view",
      "type": "function"
    },
    {
      "inputs": [],
      "name": "Chickiz",
      "outputs": [
        {
          "internalType": "contract IKIP17",
          "name": "",
          "type": "address"
        }
      ],
      "stateMutability": "view",
      "type": "function"
    },
    {
      "inputs": [],
      "name": "owner",
      "outputs": [
        {
          "internalType": "address",
          "name": "",
          "type": "address"
        }
      ],
      "stateMutability": "view",
      "type": "function"
    },
    {
      "inputs": [],
      "name": "renounceOwnership",
      "outputs": [],
      "stateMutability": "nonpayable",
      "type": "function"
    },
    {
      "inputs": [],
      "name": "submit",
      "outputs": [],
      "stateMutability": "nonpayable",
      "type": "function"
    },
    {
      "inputs": [
        {
          "internalType": "address",
          "name": "newOwner",
          "type": "address"
        }
      ],
      "name": "transferOwnership",
      "outputs": [],
      "stateMutability": "nonpayable",
      "type": "function"
    },
    {
      "inputs": [
        {
          "internalType": "uint256",
          "name": "amount",
          "type": "uint256"
        }
      ],
      "name": "withdrawChick",
      "outputs": [],
      "stateMutability": "nonpayable",
      "type": "function"
    }
  ],
  "bytecode": "0x60806040523480156200001157600080fd5b5060405162000eb438038062000eb4833981810160405281019062000037919062000270565b620000576200004b620000e160201b60201c565b620000e960201b60201c565b81600160006101000a81548173ffffffffffffffffffffffffffffffffffffffff021916908373ffffffffffffffffffffffffffffffffffffffff16021790555080600260006101000a81548173ffffffffffffffffffffffffffffffffffffffff021916908373ffffffffffffffffffffffffffffffffffffffff1602179055505050620002b7565b600033905090565b60008060009054906101000a900473ffffffffffffffffffffffffffffffffffffffff169050816000806101000a81548173ffffffffffffffffffffffffffffffffffffffff021916908373ffffffffffffffffffffffffffffffffffffffff1602179055508173ffffffffffffffffffffffffffffffffffffffff168173ffffffffffffffffffffffffffffffffffffffff167f8be0079c531659141344cd1fd0a4f28419497f9722a3daafe3b4186f6b6457e060405160405180910390a35050565b600080fd5b600073ffffffffffffffffffffffffffffffffffffffff82169050919050565b6000620001df82620001b2565b9050919050565b6000620001f382620001d2565b9050919050565b6200020581620001e6565b81146200021157600080fd5b50565b6000815190506200022581620001fa565b92915050565b60006200023882620001d2565b9050919050565b6200024a816200022b565b81146200025657600080fd5b50565b6000815190506200026a816200023f565b92915050565b600080604083850312156200028a5762000289620001ad565b5b60006200029a8582860162000214565b9250506020620002ad8582860162000259565b9150509250929050565b610bed80620002c76000396000f3fe608060405234801561001057600080fd5b506004361061007d5760003560e01c80638da5cb5b1161005b5780638da5cb5b146100b4578063923767bd146100d2578063d5bf46f0146100f0578063f2fde38b1461010c5761007d565b80635bcb2fc614610082578063715018a61461008c5780638c61864814610096575b600080fd5b61008a610128565b005b610094610332565b005b61009e6103ba565b6040516100ab9190610791565b60405180910390f35b6100bc6103e0565b6040516100c991906107cd565b60405180910390f35b6100da610409565b6040516100e79190610809565b60405180910390f35b61010a6004803603810190610105919061085f565b61042f565b005b610126600480360381019061012191906108b8565b61054f565b005b6000600260009054906101000a900473ffffffffffffffffffffffffffffffffffffffff1673ffffffffffffffffffffffffffffffffffffffff166370a08231336040518263ffffffff1660e01b815260040161018591906107cd565b602060405180830381865afa1580156101a2573d6000803e3d6000fd5b505050506040513d601f19601f820116820180604052508101906101c691906108fa565b9050600081111561028257600160009054906101000a900473ffffffffffffffffffffffffffffffffffffffff1673ffffffffffffffffffffffffffffffffffffffff166323b872dd3330685150ae84a8cdf000006040518463ffffffff1660e01b815260040161023993929190610962565b6020604051808303816000875af1158015610258573d6000803e3d6000fd5b505050506040513d601f19601f8201168201806040525081019061027c91906109d1565b5061032f565b600160009054906101000a900473ffffffffffffffffffffffffffffffffffffffff1673ffffffffffffffffffffffffffffffffffffffff166323b872dd333068a2a15d09519be000006040518463ffffffff1660e01b81526004016102ea93929190610a39565b6020604051808303816000875af1158015610309573d6000803e3d6000fd5b505050506040513d601f19601f8201168201806040525081019061032d91906109d1565b505b50565b61033a610646565b73ffffffffffffffffffffffffffffffffffffffff166103586103e0565b73ffffffffffffffffffffffffffffffffffffffff16146103ae576040517f08c379a00000000000000000000000000000000000000000000000000000000081526004016103a590610acd565b60405180910390fd5b6103b8600061064e565b565b600260009054906101000a900473ffffffffffffffffffffffffffffffffffffffff1681565b60008060009054906101000a900473ffffffffffffffffffffffffffffffffffffffff16905090565b600160009054906101000a900473ffffffffffffffffffffffffffffffffffffffff1681565b610437610646565b73ffffffffffffffffffffffffffffffffffffffff166104556103e0565b73ffffffffffffffffffffffffffffffffffffffff16146104ab576040517f08c379a00000000000000000000000000000000000000000000000000000000081526004016104a290610acd565b60405180910390fd5b600160009054906101000a900473ffffffffffffffffffffffffffffffffffffffff1673ffffffffffffffffffffffffffffffffffffffff1663a9059cbb33836040518363ffffffff1660e01b8152600401610508929190610afc565b6020604051808303816000875af1158015610527573d6000803e3d6000fd5b505050506040513d601f19601f8201168201806040525081019061054b91906109d1565b5050565b610557610646565b73ffffffffffffffffffffffffffffffffffffffff166105756103e0565b73ffffffffffffffffffffffffffffffffffffffff16146105cb576040517f08c379a00000000000000000000000000000000000000000000000000000000081526004016105c290610acd565b60405180910390fd5b600073ffffffffffffffffffffffffffffffffffffffff168173ffffffffffffffffffffffffffffffffffffffff160361063a576040517f08c379a000000000000000000000000000000000000000000000000000000000815260040161063190610b97565b60405180910390fd5b6106438161064e565b50565b600033905090565b60008060009054906101000a900473ffffffffffffffffffffffffffffffffffffffff169050816000806101000a81548173ffffffffffffffffffffffffffffffffffffffff021916908373ffffffffffffffffffffffffffffffffffffffff1602179055508173ffffffffffffffffffffffffffffffffffffffff168173ffffffffffffffffffffffffffffffffffffffff167f8be0079c531659141344cd1fd0a4f28419497f9722a3daafe3b4186f6b6457e060405160405180910390a35050565b600073ffffffffffffffffffffffffffffffffffffffff82169050919050565b6000819050919050565b600061075761075261074d84610712565b610732565b610712565b9050919050565b60006107698261073c565b9050919050565b600061077b8261075e565b9050919050565b61078b81610770565b82525050565b60006020820190506107a66000830184610782565b92915050565b60006107b782610712565b9050919050565b6107c7816107ac565b82525050565b60006020820190506107e260008301846107be565b92915050565b60006107f38261075e565b9050919050565b610803816107e8565b82525050565b600060208201905061081e60008301846107fa565b92915050565b600080fd5b6000819050919050565b61083c81610829565b811461084757600080fd5b50565b60008135905061085981610833565b92915050565b60006020828403121561087557610874610824565b5b60006108838482850161084a565b91505092915050565b610895816107ac565b81146108a057600080fd5b50565b6000813590506108b28161088c565b92915050565b6000602082840312156108ce576108cd610824565b5b60006108dc848285016108a3565b91505092915050565b6000815190506108f481610833565b92915050565b6000602082840312156109105761090f610824565b5b600061091e848285016108e5565b91505092915050565b6000819050919050565b600061094c61094761094284610927565b610732565b610829565b9050919050565b61095c81610931565b82525050565b600060608201905061097760008301866107be565b61098460208301856107be565b6109916040830184610953565b949350505050565b60008115159050919050565b6109ae81610999565b81146109b957600080fd5b50565b6000815190506109cb816109a5565b92915050565b6000602082840312156109e7576109e6610824565b5b60006109f5848285016109bc565b91505092915050565b6000819050919050565b6000610a23610a1e610a19846109fe565b610732565b610829565b9050919050565b610a3381610a08565b82525050565b6000606082019050610a4e60008301866107be565b610a5b60208301856107be565b610a686040830184610a2a565b949350505050565b600082825260208201905092915050565b7f4f776e61626c653a2063616c6c6572206973206e6f7420746865206f776e6572600082015250565b6000610ab7602083610a70565b9150610ac282610a81565b602082019050919050565b60006020820190508181036000830152610ae681610aaa565b9050919050565b610af681610829565b82525050565b6000604082019050610b1160008301856107be565b610b1e6020830184610aed565b9392505050565b7f4f776e61626c653a206e6577206f776e657220697320746865207a65726f206160008201527f6464726573730000000000000000000000000000000000000000000000000000602082015250565b6000610b81602683610a70565b9150610b8c82610b25565b604082019050919050565b60006020820190508181036000830152610bb081610b74565b905091905056fea2646970667358221220ca6a9c7c5293d57c4ac26a4b83957c75a0b50da7bc47cac0ad87d03ccd4c632064736f6c63430008110033",
  "linkReferences": {},
  "deployedLinkReferences": {}
}